{
  "contractName": "TodoList",
  "abi": [
    {
      "inputs": [],
      "stateMutability": "nonpayable",
      "type": "constructor"
    },
    {
      "anonymous": false,
      "inputs": [
        {
          "indexed": false,
          "internalType": "uint256",
          "name": "id",
          "type": "uint256"
        },
        {
          "indexed": false,
          "internalType": "string",
          "name": "content",
          "type": "string"
        },
        {
          "indexed": false,
          "internalType": "bool",
          "name": "completed",
          "type": "bool"
        }
      ],
      "name": "TaskCreated",
      "type": "event"
    },
    {
      "inputs": [],
      "name": "taskCount",
      "outputs": [
        {
          "internalType": "uint256",
          "name": "",
          "type": "uint256"
        }
      ],
      "stateMutability": "view",
      "type": "function",
      "constant": true
    },
    {
      "inputs": [
        {
          "internalType": "uint256",
          "name": "",
          "type": "uint256"
        }
      ],
      "name": "tasks",
      "outputs": [
        {
          "internalType": "uint256",
          "name": "id",
          "type": "uint256"
        },
        {
          "internalType": "string",
          "name": "content",
          "type": "string"
        },
        {
          "internalType": "bool",
          "name": "completed",
          "type": "bool"
        }
      ],
      "stateMutability": "view",
      "type": "function",
      "constant": true
    },
    {
      "inputs": [
        {
          "internalType": "string",
          "name": "_content",
          "type": "string"
        }
      ],
      "name": "createTask",
      "outputs": [],
      "stateMutability": "nonpayable",
      "type": "function"
    },
    {
      "inputs": [],
      "name": "getTask",
      "outputs": [
        {
          "components": [
            {
              "internalType": "uint256",
              "name": "id",
              "type": "uint256"
            },
            {
              "internalType": "string",
              "name": "content",
              "type": "string"
            },
            {
              "internalType": "bool",
              "name": "completed",
              "type": "bool"
            }
          ],
          "internalType": "struct TodoList.Task[]",
          "name": "",
          "type": "tuple[]"
        }
      ],
      "stateMutability": "view",
      "type": "function",
      "constant": true
    }
  ],
  "bytecode": "0x60806040523480156200001157600080fd5b50600080819055506200005f6040518060400160405280600b81526020017f4465706c6f796d656e74210000000000000000000000000000000000000000008152506200006560201b60201c565b620003f3565b600080815480929190620000799062000336565b919050555060405180606001604052806000548152602001828152602001600015158152506001600080548152602001908152602001600020600082015181600001556020820151816001019080519060200190620000da92919062000141565b5060408201518160020160006101000a81548160ff0219169083151502179055509050507f05d0fb833127fc08168556d0e7ca9554fc3f6bc843b3b7d2bf1c35aea6bab660600054826000604051620001369392919062000254565b60405180910390a150565b8280546200014f9062000300565b90600052602060002090601f016020900481019282620001735760008555620001bf565b82601f106200018e57805160ff1916838001178555620001bf565b82800160010185558215620001bf579182015b82811115620001be578251825591602001919060010190620001a1565b5b509050620001ce9190620001d2565b5090565b5b80821115620001ed576000816000905550600101620001d3565b5090565b620001fc81620002b4565b82525050565b60006200020f8262000298565b6200021b8185620002a3565b93506200022d818560208601620002ca565b6200023881620003e2565b840191505092915050565b6200024e81620002c0565b82525050565b60006060820190506200026b600083018662000243565b81810360208301526200027f818562000202565b9050620002906040830184620001f1565b949350505050565b600081519050919050565b600082825260208201905092915050565b60008115159050919050565b6000819050919050565b60005b83811015620002ea578082015181840152602081019050620002cd565b83811115620002fa576000848401525b50505050565b600060028204905060018216806200031957607f821691505b6020821081141562000330576200032f620003b3565b5b50919050565b60006200034382620002c0565b91507fffffffffffffffffffffffffffffffffffffffffffffffffffffffffffffffff82141562000379576200037862000384565b5b600182019050919050565b7f4e487b7100000000000000000000000000000000000000000000000000000000600052601160045260246000fd5b7f4e487b7100000000000000000000000000000000000000000000000000000000600052602260045260246000fd5b6000601f19601f8301169050919050565b610aaf80620004036000396000f3fe608060405234801561001057600080fd5b506004361061004c5760003560e01c8063111002aa146100515780638d9776721461006d578063a31662d21461009f578063b6cb58a5146100bd575b600080fd5b61006b6004803603810190610066919061058a565b6100db565b005b610087600480360381019061008291906105cb565b6101b1565b604051610096939291906107b8565b60405180910390f35b6100a7610270565b6040516100b4919061077b565b60405180910390f35b6100c5610441565b6040516100d2919061079d565b60405180910390f35b6000808154809291906100ed9061097b565b91905055506040518060600160405280600054815260200182815260200160001515815250600160008054815260200190815260200160002060008201518160000155602082015181600101908051906020019061014c929190610447565b5060408201518160020160006101000a81548160ff0219169083151502179055509050507f05d0fb833127fc08168556d0e7ca9554fc3f6bc843b3b7d2bf1c35aea6bab6606000548260006040516101a6939291906107b8565b60405180910390a150565b60016020528060005260406000206000915090508060000154908060010180546101da90610949565b80601f016020809104026020016040519081016040528092919081815260200182805461020690610949565b80156102535780601f1061022857610100808354040283529160200191610253565b820191906000526020600020905b81548152906001019060200180831161023657829003601f168201915b5050505050908060020160009054906101000a900460ff16905083565b60606000805467ffffffffffffffff8111156102b5577f4e487b7100000000000000000000000000000000000000000000000000000000600052604160045260246000fd5b6040519080825280602002602001820160405280156102ee57816020015b6102db6104cd565b8152602001906001900390816102d35790505b5090506000600190505b600054811161043957600160008281526020019081526020016000206040518060600160405290816000820154815260200160018201805461033990610949565b80601f016020809104026020016040519081016040528092919081815260200182805461036590610949565b80156103b25780601f10610387576101008083540402835291602001916103b2565b820191906000526020600020905b81548152906001019060200180831161039557829003601f168201915b505050505081526020016002820160009054906101000a900460ff161515151581525050826001836103e491906108bd565b8151811061041b577f4e487b7100000000000000000000000000000000000000000000000000000000600052603260045260246000fd5b602002602001018190525080806104319061097b565b9150506102f8565b508091505090565b60005481565b82805461045390610949565b90600052602060002090601f01602090048101928261047557600085556104bc565b82601f1061048e57805160ff19168380011785556104bc565b828001600101855582156104bc579182015b828111156104bb5782518255916020019190600101906104a0565b5b5090506104c991906104f0565b5090565b604051806060016040528060008152602001606081526020016000151581525090565b5b808211156105095760008160009055506001016104f1565b5090565b600061052061051b84610827565b6107f6565b90508281526020810184848401111561053857600080fd5b610543848285610907565b509392505050565b600082601f83011261055c57600080fd5b813561056c84826020860161050d565b91505092915050565b60008135905061058481610a62565b92915050565b60006020828403121561059c57600080fd5b600082013567ffffffffffffffff8111156105b657600080fd5b6105c28482850161054b565b91505092915050565b6000602082840312156105dd57600080fd5b60006105eb84828501610575565b91505092915050565b6000610600838361070d565b905092915050565b600061061382610867565b61061d818561088a565b93508360208202850161062f85610857565b8060005b8581101561066b578484038952815161064c85826105f4565b94506106578361087d565b925060208a01995050600181019050610633565b50829750879550505050505092915050565b610686816108f1565b82525050565b610695816108f1565b82525050565b60006106a682610872565b6106b0818561089b565b93506106c0818560208601610916565b6106c981610a51565b840191505092915050565b60006106df82610872565b6106e981856108ac565b93506106f9818560208601610916565b61070281610a51565b840191505092915050565b6000606083016000830151610725600086018261075d565b506020830151848203602086015261073d828261069b565b9150506040830151610752604086018261067d565b508091505092915050565b610766816108fd565b82525050565b610775816108fd565b82525050565b600060208201905081810360008301526107958184610608565b905092915050565b60006020820190506107b2600083018461076c565b92915050565b60006060820190506107cd600083018661076c565b81810360208301526107df81856106d4565b90506107ee604083018461068c565b949350505050565b6000604051905081810181811067ffffffffffffffff8211171561081d5761081c610a22565b5b8060405250919050565b600067ffffffffffffffff82111561084257610841610a22565b5b601f19601f8301169050602081019050919050565b6000819050602082019050919050565b600081519050919050565b600081519050919050565b6000602082019050919050565b600082825260208201905092915050565b600082825260208201905092915050565b600082825260208201905092915050565b60006108c8826108fd565b91506108d3836108fd565b9250828210156108e6576108e56109c4565b5b828203905092915050565b60008115159050919050565b6000819050919050565b82818337600083830152505050565b60005b83811015610934578082015181840152602081019050610919565b83811115610943576000848401525b50505050565b6000600282049050600182168061096157607f821691505b60208210811415610975576109746109f3565b5b50919050565b6000610986826108fd565b91507fffffffffffffffffffffffffffffffffffffffffffffffffffffffffffffffff8214156109b9576109b86109c4565b5b600182019050919050565b7f4e487b7100000000000000000000000000000000000000000000000000000000600052601160045260246000fd5b7f4e487b7100000000000000000000000000000000000000000000000000000000600052602260045260246000fd5b7f4e487b7100000000000000000000000000000000000000000000000000000000600052604160045260246000fd5b6000601f19601f8301169050919050565b610a6b816108fd565b8114610a7657600080fd5b5056fea2646970667358221220295067563b25c092aa13664b3d28fc5ddb935f52d200e6b3ac423d95d59b0e1064736f6c63430008000033",
  "immutableReferences": {},
  "source": "// SPDX-License-Identifier: MIT \r\npragma solidity ^0.8.0;\r\n\r\ncontract TodoList {\r\n    uint public taskCount;\r\n\r\n    constructor() {\r\n        taskCount = 0;\r\n        createTask(\"Deployment!\");\r\n    }\r\n\r\n    struct Task {\r\n        uint id;\r\n        string content;\r\n        bool completed;\r\n    }\r\n\r\n    event TaskCreated(\r\n        uint id,\r\n        string content,\r\n        bool completed\r\n    );\r\n\r\n    mapping(uint => Task) public tasks;\r\n\r\n    function createTask(string memory _content) public {\r\n        taskCount++;\r\n        tasks[taskCount] = Task(taskCount, _content, false);\r\n        emit TaskCreated(taskCount, _content, false);\r\n    }\r\n\r\n    function getTask() public view returns(Task[] memory) {\r\n        Task[] memory taskArray = new Task[](taskCount);\r\n\r\n        for (uint i = 1; i <= taskCount; i++) {\r\n            taskArray[i - 1] = tasks[i];\r\n        }\r\n\r\n        return taskArray;\r\n    }\r\n\r\n}",
  "sourcePath": "E:\\todo-blockchain\\contracts\\TodoList.sol",
  "compiler": {
    "name": "solc",
    "version": "0.8.0+commit.c7dfd78e.Emscripten.clang"
  },
  "schemaVersion": "3.4.16",
  "updatedAt": "2024-10-13T05:49:40.484Z",
  "networkType": "ethereum",
  "devdoc": {
    "kind": "dev",
    "methods": {},
    "version": 1
  },
  "userdoc": {
    "kind": "user",
    "methods": {},
    "version": 1
  }
}